:020000040000FA
:10000000A0020010690100007101000073010000EE
:100010007501000077010000790100000000000078
:100020000000000000000000000000007B01000054
:100030007D010000000000007F0100008101000040
:1000400083010000152A00008301000083010000E5
:100050008301000083010000830100008301000090
:100060008301000083010000830100008301000080
:100070008301000083010000830100008301000070
:100080008301000083010000CF26000083010000EF
:100090008301000083010000AB2300008301000006
:1000A0008301000083010000830100008301000040
:1000B0008301000083010000830100008301000030
:1000C00083010000830100008301000000F002F8BA
:1000D00000F03AF80AA090E8000C82448344AAF1A8
:1000E0000107DA4501D100F02FF8AFF2090EBAE8A6
:1000F0000F0013F0010F18BFFB1A43F0010318475C
:10010000B82B0000D82B0000103A24BF78C878C163
:10011000FAD8520724BF30C830C144BF04680C600D
:10012000704700000023002400250026103A28BF55
:1001300078C1FBD8520728BF30C148BF0B60704759
:100140001FB51FBD10B510BD02F091FD1146FFF7A0
:10015000F7FF02F0C2FB00F0BAF803B4FFF7F2FFBA
:1001600003BC00F0C1F80000094880470948004777
:10017000FEE7FEE7FEE7FEE7FEE7FEE7FEE7FEE757
:10018000FEE7FEE704480549034A054B70470000B7
:1001900099040000CD000000A0000010A002001093
:1001A000A0000010F0B504460B4615461946600045
:1001B000434A102901D31039401C52F820604FEAFD
:1001C000410C032707FA0CF7BE4342F8206052F8AF
:1001D00020604F0005FA07F73E4342F82060F0BD6B
:1001E000F0B504460B46154619466000344A4032C5
:1001F000102901D31039401C52F820604FEA410CFD
:10020000032707FA0CF7BE4342F8206052F820603B
:100210004F0005FA07F73E4342F82060F0BD30B5C5
:100220000B4627496831012A07D151F820400125A2
:100230009D402C4341F8204006E051F82040012524
:100240009D40AC4341F8204030BD012806D11C49F7
:10025000896A41F008011A4A916206E028B91849F2
:10026000896A21F00801164A91627047012800D17D
:10027000052201B90A22124BDA67704710B504460D
:10028000A27861782078FFF78DFFE2786178207896
:10029000FFF7A6FF227961782078FFF7C0FF10BD35
:1002A0007CB506460C4615468DF80060E0B28DF828
:1002B00001008DF802506846FFF7E0FF7CBD0000AA
:1002C00000C0024000BFFEE770477047704710B59E
:1002D0000446AFF300802046BDE81040FFF73DBF65
:1002E000004870473C00001001491820ABBEFEE7F3
:1002F000260002007047000000000000FFFFFFFF23
:100300002DE9F047B3480068C0F3016003287DD1B0
:10031000B0488430006800F0030030B1012830D0CC
:10032000022859D003282BD100E000BFA94800685B
:10033000C0F30740441C0221A6488838D0F8880042
:10034000C0F30E00401CA1FB0001A34B4FF0000CBA
:10035000A0FB037901FB039100FB0C1122466346CD
:10036000384602F00DFC05469A487C300068C0B261
:10037000441C22460023284602F002FC97490860EC
:1003800056E094480068C0F30740441C022191489D
:100390008838D0F88800C0F30E00401CA1FB001084
:1003A0008F4A4FF0000CA1FB027900FB029001FB89
:1003B0000C0122466346384602F0E2FB05468548BA
:1003C0007C300068C0B2441C22460023284602F05C
:1003D000D7FB824908602BE07E480068C0F30740E5
:1003E000441C02217B488838D0F88800C0F30E00F6
:1003F000401CA1FB00124FF400400023A1FB007938
:1004000002FB009001FB0301224600E011E03846A8
:1004100002F0B6FB05466F487C300068C0B2441C51
:1004200022460023284602F0ABFB6C49086000BF5F
:1004300030E068488430006800F0030030B10128E3
:1004400010D0022819D0032823D100E000BF614852
:100450007C300068C0B2401C5F49B1FBF0F05F49DE
:10046000086016E05B487C300068C0B2401C5C4904
:10047000B1FBF0F0594908600BE056487C30006849
:10048000C0B2401C4FF40041B1FBF0F0534908608A
:1004900000BF00BFBDE8F0872020524908604D48EA
:1004A0008838D0F8A00100F0200030B100BF4D48DE
:1004B000006800F040000028F9D0032045497C3155
:1004C0000860002043498839C1F8A80145490C312A
:1004D000086001203F49843108600B203D49091F15
:1004E0000860AA203B49091D0860552008600120CA
:1004F000384908390860AA203649091D0860552086
:1005000034498839C1F88C0000BF3248006800F0D7
:1005100080600028F9D003202E4908390860AA20FD
:100520002C498839C1F88C0055202A49091D0860DA
:1005300000BF2848006800F04070B0F1407FF8D15B
:10054000232024491C310860AA2022498839C1F897
:10055000AC0055201F492431086001201D49183185
:100560000860AA201B4924310860552019498839A0
:10057000C1F8AC0000BF17482030006800F480606C
:100580000028F8D00320134918310860AA20114927
:100590008839C1F8AC0055200E492431086000BFED
:1005A0000C482030006800F44070B0F5407FF7D16F
:1005B0000D4808493C310860002006498839C1F8D7
:1005C000C8010846006820F4704040F4804008608C
:1005D0007047000088C00F4000093D000000001077
:1005E000001BB700A0C10F40DE8728040146002091
:1005F000052912D2DFE801F00305080B0E00FB48C5
:100600000CE0FA48203009E0F848403006E0F748AE
:10061000603003E0F548803000E000BF00BF704765
:1006200001460020052912D2DFE801F00305080B7E
:100630000E00EE480CE0ED48203009E0EB48403079
:1006400006E0EA48603003E0E848803000E000BFA0
:1006500000BF704701460020052912D2DFE801F0F3
:100660000305080B0E00E1480CE0E048203009E0EB
:10067000DE48403006E0DD48603003E0DB48803093
:1006800000E000BF00BF70472DE9F04107460D466E
:1006900016463846FFF7AAFF04463CB11EB1206853
:1006A0002843206002E02068A8432060BDE8F08174
:1006B00070B506460C463046FFF798FF054605B173
:1006C000AC6170BD70B506460C463046FFF78EFF34
:1006D000054605B1EC6170BD70B505462846FFF7CB
:1006E00085FF04460CB1606970BD0020FCE718B9B5
:1006F00012B9BF4B196017E0022804D11AB9BC4BDC
:100700002033196010E028B9012A03D1B84B1B1D12
:10071000196009E0022805D1012A03D1B44B243322
:10072000196001E000BFFEE7704703463BB932B9EC
:10073000AF480C380068C84000F001007047022B39
:1007400007D132B9AA4814300068C84000F001004F
:10075000F4E743B9012A06D1A54808380068C84023
:1007600000F00100EAE7022B08D1012A06D1A048D7
:1007700018300068C84000F00100DFE700BFFEE766
:1007800018B99B4A121F116007E0022803D1984A4A
:100790001C32116001E000BFFEE7704770B50446EF
:1007A0000D461646324629462046FFF76DFF70BDBE
:1007B00070B504460D4629462046FFF779FF70BD07
:1007C00070B504460D4629462046FFF77BFF70BDF5
:1007D00010B504462046FFF77FFF10BD70B50446F4
:1007E0000D461646324629462046FFF780FF70BD6B
:1007F00070B504460D461646324629462046FFF798
:1008000094FF70BD10B503460C4621461846FFF70D
:10081000B7FF10BD2DE9F04107460D461646384694
:10082000FFF7E4FE04463CB11EB120692843206175
:1008300002E02069A8432061BDE8F0812DE9F04184
:1008400080460E4615461F464046FFF7E9FE044621
:100850008CB147B11EB16088284360800BE02088CE
:100860002843208007E01EB16088A843608002E032
:100870002088A8432080BDE8F0812DE9F041804622
:100880000E4615461F464046FFF7CAFE04468CB189
:1008900047B11EB1608A284360820BE0208A28435A
:1008A000208207E01EB1608AA843608202E0208AAD
:1008B000A8432082BDE8F0812DE9F04107460E46AD
:1008C00014463846FFF7ACFE05461DB10EB16C83E9
:1008D00000E02C83BDE8F0812DE9F04107460E468B
:1008E00014463846FFF79CFE05461DB10EB1EC8359
:1008F00000E0AC83BDE8F08170B506460D46304699
:10090000FFF78EFE044624B10DB1E08A70BDA08AC7
:10091000FCE70020FAE72DE9F04180460C46164638
:100920001F464046FFF796FE05465DB12FB1032CEA
:1009300008DC285D3043285504E0032C02DC285DE8
:10094000B0432855BDE8F0812DE9F04180460C46C2
:1009500016461F464046FFF77DFE05469DB14FB146
:10096000032C10DC05F11000005D304305F110018F
:10097000085508E0032C06DC05F11000005DB043CB
:1009800005F110010855BDE8F0812DE9F041074659
:100990000C4615463846FFF75DFE064626B1032C89
:1009A00002DC06F118000555BDE8F0812DE9F041A3
:1009B00007460C4615463846FFF74CFE064626B15C
:1009C000032C02DC06F11C000555BDE8F08170B572
:1009D00006460C463046FFF73DFE054655B1032C52
:1009E00008DC05F11400005D70BD000000C00920A6
:1009F000908002400020F7E7002100E0491C81427E
:100A0000FCD3704710B504460A2C65D2DFE804F029
:100A10006405101B26303A444E5801221107104637
:100A2000FFF732FE4FF080510120FFF74BFE53E0FD
:100A3000012251071046FFF727FE4FF00051012019
:100A4000FFF740FE48E00122D1071046FFF71CFEE9
:100A50004FF000410120FFF735FE3DE00122042167
:100A60000220FFF711FE04210220FFF72BFE33E0E6
:100A7000012208210220FFF707FE08210220FFF7CC
:100A800021FE29E0012210210220FFF7FDFD1021A7
:100A90000220FFF717FE1FE0012220210220FFF7AE
:100AA000F3FD20210220FFF70DFE15E00122402179
:100AB0000220FFF7E9FD40210220FFF703FE0BE0D3
:100AC00001224FF030411046FFF7DEFD01227C216C
:100AD0000220FFF7D9FD00BF00BF10BD10B50446CE
:100AE0000A2C3BD2DFE804F03A050B11171C212633
:100AF0002B304FF080510120FFF7DAFD2EE04FF050
:100B000000510120FFF7D4FD28E04FF00041012003
:100B1000FFF7CEFD22E004210220FFF7C9FD1DE012
:100B200008210220FFF7C4FD18E010210220FFF782
:100B3000BFFD13E020210220FFF7BAFD0EE04021A7
:100B40000220FFF7B5FD09E04FF030410120FFF72B
:100B5000AFFD7C210220FFF7ABFD00BF00BF10BD41
:100B600010B50446092C31D2DFE804F030050B1132
:100B7000171C21262B004FF080510120FFF7A2FD0A
:100B800024E04FF000510120FFF79CFD1EE04FF0E4
:100B900000410120FFF796FD18E004210220FFF735
:100BA00091FD13E008210220FFF78CFD0EE01021DB
:100BB0000220FFF787FD09E020210220FFF782FDD8
:100BC00004E040210220FFF77DFD00BF00BF10BD03
:100BD00010B50446092C16D2DFE804F08D0516275F
:100BE00038495A6B7C006A48007830B90120FFF719
:100BF00075FF01206649087005E00120FFF7B0FF8E
:100C000000206349087076E06248007830B902201D
:100C1000FFF764FF01205F49087005E00220FFF73D
:100C20009FFF00205B49087065E05B48007830B9A1
:100C30000320FFF753FF01205749087005E0032008
:100C4000FFF78EFF00205449087054E053480078A5
:100C500030B90420FFF742FF01205049087005E039
:100C60000420FFF77DFF00204C49087043E04C480A
:100C7000007830B90520FFF731FF0120484908709E
:100C800005E00520FFF76CFF00204549087032E0C1
:100C90004448007830B90620FFF720FF0120414981
:100CA000087005E00620FFF75BFF00203D49087053
:100CB00021E03D48007830B90720FFF70FFF012001
:100CC0003949087005E00720FFF74AFF0020364940
:100CD000087010E03548007830B90820FFF7FEFEB4
:100CE00001203249087005E00820FFF739FF002095
:100CF0002E49087000BF00BF10BD10B54FF08051E5
:100D00000120FFF7D5FC4FF000510120FFF7D0FC88
:100D10004FF000410120FFF7CBFC04210220FFF738
:100D2000C7FC08210220FFF7C3FC10210220FFF7B7
:100D3000BFFC20210220FFF7BBFC40210220FFF76F
:100D4000B7FC10BD10B54FF080510120FFF7BAFC81
:100D50004FF000510120FFF7B5FC4FF0004101209A
:100D6000FFF7B0FC04210220FFF7ACFC08210220B1
:100D7000FFF7A8FC10210220FFF7A4FC202102208D
:100D8000FFF7A0FC40210220FFF79CFC10BD0000F3
:100D900004000010050000100600001007000010FD
:100DA00008000010090000100A0000100B000010DD
:100DB00070B5054635B1012D09D0022D0CD0032D9B
:100DC00014D10EE0022000F075FB04460EE0042072
:100DD00000F070FB044609E02C2000F06BFB044699
:100DE00004E02E2000F066FB044600BF00BF204652
:100DF00070BD2DE9F04781460C464846FFF7D8FF05
:100E00000026054600232946A1FB047C06FB04C2FC
:100E100005FB0321FB4A384601F0B2FE0546284691
:100E2000BDE8F08701464FF0FF30B1F1402F01D10E
:100E300000200DE0F44A914201D1012008E0F34A7C
:100E4000914201D1022003E0F14A914200D10320F6
:100E5000704770B505460C46B5F1402F08D0EA48FA
:100E6000854205D0E948854202D0E948854200D153
:100E700003E0AC21E7A0FFF725FA4CB1012C07D025
:100E8000022C05D0032C03D0042C01D0052C00D15A
:100E900003E0AD21DFA0FFF715FA28680121A1408A
:100EA0000840C6B20EB1012070BD0020FCE770B54D
:100EB00005460C46B5F1402F08D0D348854205D0F1
:100EC000D248854202D0D248854200D103E0CA21EF
:100ED000D0A0FFF7F7F94CB1012C07D0022C05D0B8
:100EE000032C03D0042C01D0052C00D103E0CB212E
:100EF000C8A0FFF7E7F92868211D01228A401040A9
:100F0000C6B20EB1012070BD0020FCE770B50546E9
:100F10000C46B5F1402F08D0BB48854205D0BB48F0
:100F2000854202D0BA48854200D103E0E321B9A04E
:100F3000FFF7C8F94CB1012C07D0022C05D0032CC7
:100F400003D0042C01D0052C00D103E0E421B1A092
:100F5000FFF7B8F90120A040286070BD70B50546C4
:100F60000C46B5F1402F08D0A748854205D0A748C8
:100F7000854202D0A648854200D103E0FA21A5A00F
:100F8000FFF7A0F94CB1012C07D0022C05D0032C9F
:100F900003D0042C01D0052C00D103E0FB219DA03F
:100FA000FFF790F9201D01218140296070BD20B913
:100FB0000A4601231370536003E00A46002353706E
:100FC00000BF70472DE9F04704460D461646B4F1C0
:100FD000402F08D08C48844205D08C48844202D0EF
:100FE0008B48844200D104E040F2311189A0FFF720
:100FF00069F91DB1012D01D000D000D104E04FF4FA
:10100000997184A0FFF75EF9B4F1402F08D1012156
:10101000022000F06CFA0021022000F00BFA22E01E
:101020007948844208D10121042000F060FA0021AF
:10103000042000F0FFF916E07448844208D1012131
:10104000880500F054FA00212C2000F0F3F90AE0A2
:101050006F48844207D10121C80500F048FA0021F9
:101060002E2000F0E7F9A06A20F00300A062A06A39
:10107000A0620020A0602061E060606840F0020093
:101080006060606820F00200606085B9374638789B
:1010900018B97868401EE06017E02046FFF7C2FEEE
:1010A00081467968FFF7A5FE401EE0600DE0B0467E
:1010B000A06A20F00C00A062464698F801000128C2
:1010C00003D1A06A40F00400A0624FF0FF3020601E
:1010D000BDE8F08710B50446B4F1402F08D04A4867
:1010E000844205D04948844202D04948844200D114
:1010F00004E040F27F1147A0FFF7E4F800206060B1
:10110000B4F1402F04D10021022000F0F0F918E0E2
:101110003D48844204D10021042000F0E8F910E0A9
:101120003A48844205D100214FF4800000F0DFF9F5
:1011300007E03748844204D100214FF4800000F0DA
:10114000D6F910BD70B504460D46B4F1402F08D055
:101150002D48844205D02D48844202D02C48844238
:1011600000D104E04FF4D0712AA0FFF7ABF8012DB5
:1011700004D1606840F00100606003E0606820F026
:101180000100606070BD10B50446B4F1402F08D076
:101190001D48844205D01D48844202D01C48844228
:1011A00000D104E04FF4DC711AA0FFF78BF86068FF
:1011B00040F002006060606820F00200606010BDD6
:1011C00070B504460D46B4F1402F08D00E48844255
:1011D00005D00E48844202D00D48844200D104E07C
:1011E00040F2D7110BA0FFF76DF8287940B12879AC
:1011F000012805D02879022802D02879032829D18E
:101200002EE0000040420F00008000400000094036
:10121000004009402E2E5C2E2E5C4875696E735F6F
:101220004E58505F4C5043313736385F4C696272CC
:101230006172795C447269766572735C736F757202
:1012400063655C6C7063313778785F74696D657263
:101250002E6300004FF4EC71AFF24800FFF732F854
:10126000287830B1012807D0022808D003280CD1F3
:1012700008E0A868A0610AE0A868E06107E0A86843
:10128000206204E0A868606201E000BFFEE700BFE2
:101290006069297801EB4102072191408843606130
:1012A000687838B16069297801EB410201219140E9
:1012B00008436061E87840B16069297801EB410139
:1012C000491C01228A4010436061A87840B16069DE
:1012D000297801EB4101891C01228A401043606199
:1012E000E06B2978042202EB4102032191408843FC
:1012F000E063287900F003002978042202EB410121
:101300008840E16B0843E06370BD70B504460E464B
:101310001546B4F1402F08D04348844205D04348D5
:10132000844202D04248844200D105E040F20D21BF
:10133000AFF22010FEF7C6FF36B1012E06D0022E06
:1013400006D0032E08D105E0A56107E0E56105E0C0
:10135000256203E0656201E000BFFEE700BF70BDEB
:1013600070B504460D46B4F1402F08D02E48844293
:1013700005D02E48844202D02D48844200D105E099
:1013800040F23321AFF27410FEF79CFFA06A297877
:1013900001EB4102072191408843A062687838B18F
:1013A000A06A297801EB4102012191400843A06223
:1013B000A87840B1A06A297801EB4101491C0122BB
:1013C0008A401043A062E87840B1A06A297801EB16
:1013D0004101891C01228A401043A06270BD70B592
:1013E00004460D46B4F1402F08D00F48844205D082
:1013F0000E48844202D00E48844200D105E040F2FB
:101400004E21AFF2F010FEF75DFF0DB1012D00D1BE
:1014100005E040F24F21AFF20420FEF753FF0DB973
:10142000E06A70BD206BFCE70080004000000940CE
:101430000040094010B50A46202801D2034601E0C9
:10144000A0F120031946202810D2454B1B68032425
:101450008C40A343434CC4F8A831414B1B6802FAAB
:1014600001F423433F4CC4F8A83111E03C4B1B1D51
:101470001B6803248C40A3433A4CC4F8AC31384B6E
:101480001B1D1B6802FA01F42343364CC4F8AC312F
:1014900010BD0146202903D20A46314B186804E0EA
:1014A000A1F120022E4B1B1D186820FA02F303F055
:1014B0000300704770B506462B4804683046FFF7B6
:1014C000E8FF054635B1012D06D0022D06D0032DCB
:1014D00008D105E0042505E0012503E0022501E02F
:1014E000082500BF00BFB4FBF5F4204670BD0129FC
:1014F00009D11C4AC43212681C4B03401A43194BD1
:10150000C3F8C42009E041B9164AC4321268174B27
:1015100083431A40134BC3F8C4207047002011497D
:10152000C031086030BF70470420114908600020B6
:101530000C49C031086030BF704704200C49086076
:1015400001200849C031086030BF704704200849B5
:10155000086003200349C031086030BF70470000B5
:10156000A8C10F4000C00F4000000010DEF7EFEFF1
:1015700010ED00E000202E4908602E49C1F8480116
:101580002B490C31086070477047012909D1284A5E
:101590000C321268012383401A43264BC3F84C21B6
:1015A00009E041B9224A0C321268012383409A4370
:1015B000204BC3F84C217047012909D11C4A08323D
:1015C0001268012383401A431A4BC3F8482109E0EB
:1015D00041B9174A08321268012383409A43154BD8
:1015E000C3F84821704710B5044600201049086030
:1015F00061782078FFF7E0FFA1782078FFF7C5FF3A
:1016000010BD012181400A4A1160704718B5044697
:1016100064B900208DF8000001208DF80100002041
:101620008DF802006846FFF7DEFF00BF00BF18BD5F
:1016300040C10F4000C00F402DE9F04104460D4667
:10164000C248844200D103E04821C1A0FEF73AFE1F
:101650001DB1CF48854200D803E04921BCA0FEF768
:1016600031FE01210803FFF742FF002020604FF404
:1016700000181820FFF71EFF064605EB851707EB3D
:1016800046007900B0FBF1F0471E48EA0728C4F88D
:101690000080BDE8F08110B50446AC48844200D11A
:1016A00003E06921AAA0FEF70DFE206800F0E060CB
:1016B00018B1206820F0E0602060206820F0FF0072
:1016C0002060206820F40010206000214FF480503A
:1016D000FFF70DFF10BD014601B100BF00BF9B48E1
:1016E000103050F82120C2F30B10704770B505463A
:1016F0000C469648854200D103E0952194A0FEF760
:10170000E1FD6CB1012C0BD0022C09D0032C07D0C9
:10171000042C05D0052C03D0062C01D0072C00D1B9
:1017200003E096218AA0FEF7CDFD286820F0E06056
:101730002860286840EA0460286070BD70B50446DF
:101740000D468248844200D103E0A72180A0FEF725
:10175000B9FD206820F4803020601DB1206840F47D
:101760008030206070BD70B504460D4677488442D5
:1017700000D103E0B92176A0FEF7A4FD206820F493
:10178000001020601DB1206840F40010206070BD82
:1017900070B504460D466D48844200D103E0CB216C
:1017A0006BA0FEF78FFD0DB1012D00D103E0CC2120
:1017B00067A0FEF787FD206820F0006020601DB163
:1017C000206840F00060206070BD70B505460C4692
:1017D00016465E48854200D103E0E4215CA0FEF796
:1017E00071FD7CB1012C0DD0022C0BD0032C09D043
:1017F000042C07D0052C05D0062C03D0072C01D0D3
:10180000082C00D103E0E52151A0FEF75BFDE8685C
:101810000121A1408843E86026B1E9680120A04089
:101820000143E96070BD70B504460D461646474851
:10183000844200D103E0F72145A0FEF743FD05B146
:1018400000BF00BF012E05D120680121A940084337
:1018500020600CE0206800F0E06018B1206820F003
:10186000E060206020680121A9408843206070BDAD
:1018700070B504460D463548844200D104E040F27C
:101880000D1133A0FEF71EFD05B100BF00BF04F12E
:10189000100050F82560C6F30B1070BD2DE9F04123
:1018A00007460E4614462948874200D104E040F21C
:1018B000211127A0FEF706FD06B100BF00BF0CB145
:1018C000012C00D104E040F2231121A0FEF7FAFC24
:1018D00007F1100050F8265014B105F0004501E062
:1018E00005F0804515B10120BDE8F0810020FBE73F
:1018F00010B504461548844200D104E04FF49D71B0
:1019000013A0FEF7DFFC606810BD70B506460C46FC
:101910000E48864200D104E040F24B110CA0FEF7C5
:10192000D1FC0CB1012C00D104E04FF4A67108A049
:10193000FEF7C8FC756814B105F0004501E005F03C
:1019400080450DB1012070BD0020FCE70040034040
:101950002E2E5C2E2E5C4875696E735F4E58505F5C
:101960004C5043313736385F4C6962726172795C32
:10197000447269766572735C736F757263655C6CD3
:101980007063313778785F6164632E630000000014
:10199000400D03007047002100E0491C8142FCD348
:1019A00070470020FE49496B21F40011FC4A516345
:1019B0001146496B41F4001151631146496B21F402
:1019C0000011516311464969C1F3C05101B90420A6
:1019D000F3494969C1F3006101B90320F049496F36
:1019E000C1F3406101B90220ED49496FC1F3806143
:1019F00001B90120EA49496B41F40011E84A5163F9
:101A0000704730B5E6484069C4B200230025E44879
:101A1000406940F40020E24948610846406940F4CA
:101A2000801048610846406920F40010486108466B
:101A3000406940F0100048610846006820F400004A
:101A400008600846006820F0807008600846006E54
:101A500020F0007008660846006E20F0806008667E
:101A60000846406920F0200048610846406940F47B
:101A7000806048610846406D40F4805048650846E3
:101A8000406D40F4005048650846406D40F40060E9
:101A900048650846406D20F400604865FFF781FF07
:101AA000034603B11D46BE48406940F02000BC49D2
:101AB00048610846406920F4806048610846406DEE
:101AC00040F4805048650846406D40F40050486539
:101AD0000846406D40F4006048650846406D20F4BB
:101AE00000604865FFF75DFF03460BB1181DC5B2E6
:101AF000AB48406940F02000A94948610846406968
:101B000040F4806048610846406D20F4805048658C
:101B10000846406D40F4005048650846406D40F46A
:101B2000006048650846406D20F400604865FFF796
:101B300038FF034613B103F10800C5B29848406965
:101B400040F02000964948610846406940F48060B2
:101B500048610846406D40F4805048650846406D35
:101B600020F4005048650846406D40F40060486528
:101B70000846406D20F400604865FFF712FF0346F9
:101B800013B103F10C00C5B285484461006840F010
:101B90002000834908600846006840F480600860BF
:101BA0000846006C40F4805008640846006C40F41D
:101BB00000500864284630BD0A2835D2DFE800F01E
:101BC00034050A0F14181C2024284FF08051744A41
:101BD000916329E04FF00051714A916324E04FF086
:101BE00000416F4A91631FE004216D4A91651BE03B
:101BF00008216B4A916517E01021694A916513E04D
:101C00002021674A91650FE04021654A91650BE00C
:101C10006349096A41F03041614A11621146096C19
:101C200041F07C01116400BF00BF70470A2830D228
:101C3000DFE800F02F050A0F14181C2024284FF0AD
:101C40008051574AD16324E04FF00051544AD16388
:101C50001FE04FF00041524AD1631AE00421504A7C
:101C6000D16516E008214E4AD16512E010214C4A98
:101C7000D1650EE020214A4AD1650AE04021484A58
:101C8000D16506E04FF03041454AD1637C21D165F2
:101C900000BF00BF704700B503460720FFF7C6FF2F
:101CA0000820FFF7C3FF012B03D10720FFF784FFB4
:101CB00002E00820FFF780FF00BD10B504460B2CA2
:101CC0003CD2DFE804F03B060A0E3B1219203B2B06
:101CD000330001203349087030E002203149087098
:101CE0002CE003202F49087028E001202E490870BD
:101CF00000202E49087021E002202B4908700020A6
:101D00002A4908701AE029480078012802D00A20E0
:101D1000274908700120254908700FE00120254956
:101D2000087008460078FFF7B6FF07E00220214957
:101D3000087008460078FFF7AEFF00BF00BF10BD77
:101D400010B5174B5B69DAB2154B1B681A4C23436D
:101D5000134C236023461B6A43F40013236223467B
:101D60001B6C43F46053236423461B6E43F0C06333
:101D7000236623465B6923F40003636123465B69A2
:101D800023F08073636123465B6B23F4001363636A
:101D900023465B6D23F40063636523465B6D0DE0B2
:101DA00000C009201B0000101C0000101F000010C4
:101DB000210000101D000010300CB80123F48053E6
:101DC000636523465B6D23F40053636523465B6FB5
:101DD00023F00073636723465B6F23F080636367C0
:101DE00009283ED2DFE800F03D050C131A21282F08
:101DF0003600FE4B5B6943F40003FC4C636130E04A
:101E0000FA4B5B6943F08073F84C636129E0F74B50
:101E10005B6B43F40013F54C636322E0F34B5B6DA3
:101E200043F40063F14C63651BE0F04B5B6D43F4DE
:101E30008053EE4C636514E0EC4B5B6D43F4005350
:101E4000EA4C63650DE0E94B5B6F43F00073E74CD0
:101E5000636706E0E54B5B6F43F08063E34C6367C9
:101E600000BF00BFE14B5B6943F48063DF4C6361FB
:101E700023465B6923F48063636123465B6923F433
:101E80000003636123465B6923F08073636123462B
:101E90005B6B23F40013636323465B6D23F40063E1
:101EA000636523465B6D23F48053636523465B6D56
:101EB00023F40053636523465B6F23F0007363676D
:101EC00023465B6F43F0806363670A290CD2DFE827
:101ED00001F0050C27333F505C63797AC34B5B6F8D
:101EE00043F00073C14C636779E0C04B5B6943F416
:101EF0000003BE4C636123465B6D43F4006363657E
:101F000023465B6D43F48053636523465B6D43F466
:101F10000053636523465B6F43F0007363675EE0C5
:101F2000B24B5B6B43F40013B04C636323465B6DB1
:101F300043F40053636552E0AC4B5B6D43F4805354
:101F4000AA4C636523465B6D43F40053636546E02A
:101F5000A64B5B6943F40003A44C636123465B6DAD
:101F600043F40063636523465B6D43F4805363650C
:101F700035E09E4B5B6943F080739C4C6361234664
:101F80005B6D43F48053636529E0984B5B6943F0D4
:101F90008073964C636122E0944B5B6D43F4006365
:101FA000924C636523465B6D43F48053636523461F
:101FB0005B6D43F40053636523465B6F43F000732E
:101FC00063670CE00BE0894B5B6D43F40063874C67
:101FD000636523465B6D43F48053636500BF00BFB8
:101FE000824B5B6943F02003804C636123465B694D
:101FF00023F02003636123465A6110BD7B4A526976
:10200000D1B27A4A12687A4B1A43784B1A601A4650
:10201000126A42F400121A621A46126C42F46052BA
:102020001A641A46126E42F0C0621A661A46526963
:1020300042F400025A611A46526922F080725A61D3
:102040001A46526B22F400125A631A46526D22F459
:1020500000625A651A46526D22F480525A651A4639
:10206000526D22F400525A651A46526F22F00072E5
:102070005A671A46526F22F080625A671A465269AE
:1020800042F480625A611A46526922F480625A61AF
:102090001A46526942F400025A611A46526942F0E5
:1020A00080725A611A46526B42F400125A631A4601
:1020B000526D42F400625A651A46526D42F48052E3
:1020C0005A651A46526D42F400525A651A46526FCA
:1020D00042F000725A671A46526F42F080625A67A5
:1020E000012804D0022809D0032815D10DE03F4A69
:1020F000526922F400023D4B5A610DE03B4A526F97
:1021000022F00072394B5A6706E0384A526D22F4C9
:102110000062364B5A6500BF00BF344A526942F034
:102120002002324B5A611A46526922F020025A614B
:102130001A46516170472D4A5269D1B22B4A126832
:102140002B4B1A43294B1A601A46126A42F40012AA
:102150001A621A46126C42F460521A641A46126EDF
:1021600042F0C0621A661A46526922F400025A61AD
:102170001A46526942F080725A611A46526B22F432
:1021800000125A631A46526D22F400625A651A46CA
:10219000526D22F480525A651A46526D22F4005252
:1021A0005A651A46526F22F000725A671A46526FE9
:1021B00022F080625A671A46526942F480625A617C
:1021C0001A46526922F480625A611A46526922F410
:1021D00000025A611A46526922F080725A611A4608
:1021E000526B22F400125A631A4603E000C0092021
:1021F000300CB801526D22F400625A651A46526DD5
:1022000022F480525A651A46526D22F400525A65E1
:102210001A46526F22F000725A671A46526F22F025
:1022200080625A67012802D0022813D106E0FE4AD4
:10223000526D42F40062FC4B5A650BE0FA4A526957
:1022400042F40002F84B5A611A46526D42F40062A1
:102250005A6500BF00BFF44A526942F02002F24BB7
:102260005A611A46526922F020025A611A46516197
:10227000704710B5ED4801780820FFF761FD41F285
:102280008830FEF7B9FBEA4801780720FFF758FDD0
:1022900041F28830FEF7B0FBE64801780620FFF7F0
:1022A0004FFD41F28830FEF7A7FBE3480178052097
:1022B000FFF746FD41F28830FEF79EFBDF480078CD
:1022C000012809D1DE48006840F21D11B0FBF1F091
:1022D0001230DC49087024E0DB48007801280ED178
:1022E000D74800684FF4FA71B0FBF1F00A21B0FB57
:1022F000F1F201FB12001230D249087011E0D2480D
:10230000007802280DD1CE4800684FF41671B0FB5A
:10231000F1F00A21B0FBF1F201FB12001A30C949B9
:102320000870C8480078C9490978884202D00A2054
:10233000C7490870C3480078C4490870C14800788C
:102340000A2190FBF1F201FB1200C4B221460420E5
:10235000FFF7F6FC42F21070FEF74EFBB94800782A
:102360000A2190FBF1F090FBF1F201FB1200C4B2E4
:1023700021460320FFF7E4FC42F21070FEF73CFB1D
:1023800041F28830FEF738FBAF480078FFF7D3FE04
:1023900041F28830FEF730FBAE480078FFF72EFEA2
:1023A00041F28830FEF728FB10BD10B50020A4498B
:1023B000086001220221A848FFF770FA70B10221DB
:1023C000A548FFF755FA9E49086016200121814073
:1023D000A24A430942F8231000BF00BF10BD0A28DB
:1023E0005CD2DFE800F05B050F19222B343D464F2D
:1023F0008D49096A41F080518B4A11624FF080513A
:10240000D1634BE08849096A41F00051864A116264
:102410004FF00051D16341E08349096A41F0004126
:10242000814A11625104D16338E07F49096C41F05F
:1024300004017D4A11640421D1652FE07A49096CB9
:1024400041F00801784A11640821D16526E07649F7
:10245000096C41F01001744A11641021D1651DE02E
:102460007149096C41F020016F4A11642021D16546
:1024700014E06D49096C41F040016B4A1164402140
:10248000D1650BE06849096A41F03041664A116242
:102490001146096C41F07C01116400BF00BF704718
:1024A00000B50346032B1ED16D4800681E306C49F1
:1024B00008606C480088401C6A490880084600880B
:1024C000052804DA66480068B0F59B7F06D305202E
:1024D000644908804FF49B7061490860614908783D
:1024E000FFF76AFB1DE0052B1BD15D4800681E3815
:1024F0005B4908605B490878FFF798FB59480088FA
:10250000401E5849088008460088002803DD5448CA
:102510000068A02805D8002052490880A020504912
:10252000086000BD404800684F4908433E490860C4
:102530000846006A40F4001008620846006C40F447
:10254000605008640846006E40F0C060086670473E
:10255000F0B504460B46002533484069C6B2FFF784
:10256000E1FF00BF44E020202F4988614001C8619D
:10257000400388614000C8613C4800688008B0FBA7
:10258000F3F73846FFF707FA20202749C8614001D2
:102590008861400388614000C86134480068800851
:1025A000B0FBF3F73846FFF7F6F920201E49C86163
:1025B000400188614003C861400088612B48006881
:1025C0008008B0FBF3F73846FFF7E5F920201649FD
:1025D00088614001C8614003C861400088612348A8
:1025E00000688008B0FBF3F73846FFF7D4F96D1C9C
:1025F00004EB4400B5EBC00FB5D30B484661F0BD0A
:1026000009488030006840F080500749C1F88000D8
:102610000846006A20F4801008620846006A20F428
:1026200000000862084623E000C009200F000010E7
:102630000E0000100D0000100C0000101F00001014
:1026400024000010200000101C00001022000010C8
:10265000210000101B0000100040034080E100E05A
:102660001400001018000010300CB8010000001019
:10267000006A20F0807008620846006A20F000704E
:1026800008620846006A20F08060086270470020F7
:10269000FE49496BC1F3005101B90120FB49496B67
:1026A000C1F3C05101B90220F849496BC1F300617F
:1026B00001B90320F549496BC1F3406101B9042018
:1026C000F249496BC1F3806101B90520704710B52B
:1026D0000020FEF796FFEE48007818B90120EC497B
:1026E000087002E00020EA49087010BD00B5FFF74D
:1026F00088F9E84908700020E7490870E548007843
:10270000082804D1E5480078401CE4490870E148F5
:102710000078072804D1E2480078401CE04908709E
:10272000DC480078062804D1DE480078401CDD49EA
:102730000870D84800780C2815D1D848007868B9B6
:10274000D748007810B90620D5490870D4480078D9
:10275000401ED34908700A20D0490870CF4800783D
:10276000401ECE490870CB4800780B280AD1CC48CF
:10277000007810B90620CA490870C9480078401E80
:10278000C7490870C34800780A2810D1C6480078A5
:1027900040B9C448007828B90220C3490870042011
:1027A000C0490870BF480078401EBE490870BB4849
:1027B00000780A2807D1BA480078401CB849087048
:1027C0000020B6490870B6480078062802D10020DB
:1027D000B3490870B34800780A2807D1B248007896
:1027E000401CB14908700020AE490870AE4800781E
:1027F000022808D1AB480078042804D10020AA4957
:102800000870A849087000BD10B50024A7480078DA
:10281000202803D0A5480078122800D10524A34819
:1028200000781F2803D0A1480078132800D1042481
:102830009E4800781E280BD09C4800781D2807D0A1
:102840009A480078152803D098480078142800D1B9
:102850000324964800781C2807D09448007817284D
:1028600003D092480078162800D102248F480078BF
:102870001B2803D08D480078182800D101248B48EC
:1028800000781A2803D089480078192800D100243C
:102890008748007870B987480088A04203DD05208A
:1028A000FFF7FEFD06E083480088A04202DA03201D
:1028B000FFF7F6FD10BD01207F49087064204860D5
:1028C00000207E49087001204870C8700020887080
:1028D000087142F21070886070471CB5FDF7DCFD8E
:1028E000FFF720FE0920FEF78DF8FFF789FEFEF7BF
:1028F00041FE01220A210220FDF7D2FC0020FEF752
:1029000085FE122000F026F9FFF7D5FF6A4A002164
:102910004FF04020FEF756FB68494FF04020FEF78D
:102920004FFC012000F016F901214FF04020FEF786
:1029300009FC01208DF8020000208DF804008DF8BC
:10294000030019208DF8010000208DF80000684672
:10295000FDF794FC5A495B48FEF76EFE0122022106
:102960005848FEF732FF012202215648FEF75BFF6E
:1029700016200921002807DACA06140E524A00F070
:102980000F031B1FD45403E0CA06130E4F4A1354FF
:1029900000BF3EE001214B48FEF7A8FE162000F0E4
:1029A000D9F83B480078012805D149480168012041
:1029B000FFF7CEFD2DE00024FFF75BFCFFF721F8C9
:1029C00004464448007810B92046FFF776F9102CE9
:1029D0000FD140480078012803D100203D490870FC
:1029E00002E001203B49087000BFFFF70AF81028F9
:1029F000FBD03948007801280AD12C4800781928E2
:102A000003DD02203549087002E0012033490870D7
:102A100000BFBFE710B5FFF73AFE0446FFF737FEE9
:102A200010B10A20224908702046FFF739FD002125
:102A30004FF04020FEF76AFA27480078012801D1BC
:102A4000FFF7E2FE23480078012809D1FEF7D9FFFD
:102A50001049087008460078002801DDFFF746FE9F
:102A60000D480078401C0C49087011480078002877
:102A700004DD0F480078401E0D49087006480078B4
:102A80003C2866D105480078401C29E000C0092098
:102A90001A00001011000010100000100F000010AC
:102AA0000E0000100D0000100C000010200000109F
:102AB0002100001018000010280000103000001045
:102AC000400D03000040034018ED00E000E400E08A
:102AD000140000101E0000101F0000101C00001049
:102AE00022490870002022490870204800780A28EE
:102AF00007D120480078401C1E49087000201B495F
:102B000008701C480078062807D11B480078401C34
:102B100019490870002017490870174800780A28DA
:102B200004D116480078401C1449087013480078F6
:102B300002280ED11048007804280AD100200F493D
:102B400008700D4908700B49087008490870084959
:102B5000087010BD00F01F0201219140420992004F
:102B600002F1E022C2F80011704700000F000010CF
:102B7000100000100E0000100D0000100C000010DE
:102B800053EA020C00F069802DE9F04B4FF000068B
:102B9000002B1FBFB3FA83F503FA05F424FA05F6F8
:102BA0005E4012BF1643B2FA82F502FA05F4C5F18F
:102BB00020051EBF22FA05FC44EA0C04203556EA23
:102BC000044C4FEA144418BF641C4FF000084FF047
:102BD0000009904271EB030C39D3002919BFB1FAF7
:102BE00081F701FA07F6B0FA80F700FA07F6C7F1A5
:102BF00020071EBF20FA07FC46EA0C062037B6FB6A
:102C0000F4FCA7EB0507103F07F01F0BCBF12006E4
:102C10000CFA0BFB2CFA06F644BFB3460026202F15
:102C2000A4BF5E464FF0000B5BEA060C08BF4FF0F6
:102C3000010B19EB0B09ABFB027C48EB0608C01B30
:102C400006FB02CC0BFB03CC71EB0C01C1E70B467E
:102C5000024641464846BDE8F08B13B54FF00000F0
:102C60004FF00001AFF30080BDE81C40704775468F
:102C7000FDF736FBAE4605006946534620F00700D7
:102C8000854618B020B5FDF77DFABDE820404FF02D
:102C900000064FF000074FF000084FF0000B21F046
:102CA0000701AC46ACE8C009ACE8C009ACE8C00913
:102CB000ACE8C0098D467047D82C00000000001019
:102CC0003000000008010000082D00003000001056
:102CD000700200002401000000A24A04000000006D
:102CE000000000000000000000000000960000004E
:102CF00000000001010100000000000000000000D1
:082D00000000000000000000CB
:04000005000000CD2A
:00000001FF
